:02000000912B42
:06000600000000000800EC
:0E000C00213083120313FD00FD0B0A280800AB
:10001A000F3083120313FC004730FD00FD0B132839
:0A002A00FC0B132800000000080082
:1000340083120313E01B2028881321288817601BD0
:100044002528081326280817E01A2A2888122B289E
:100054008816601A2F280812302808164B183428DE
:10006400081535280811881503208811E0193C2843
:1000740088133D2888176019412808134228081757
:10008400E018462888124728881660184B2808125A
:100094004C2808164B1850280815512808118815A3
:1000A400032088114B1C58280D20592806200800CD
:1000B40083120313DB01DD01DE011030DF000430A5
:1000C4005E0203188628F03086005F0983168600D6
:1000D400032003200F3083120605F0007008DC00B3
:1000E4007008031980285D08DB005C0803197E286A
:1000F400DC0CDC13DB0A77280430DE00DF0D5F1034
:0E0104000430DD07DE0A61285B08F000080009
:10011200831203134B105B08E0001A204B140800F3
:10012200063083120313FD00FD0B95280000080022
:0E013200831203134A088A004908820008005D
:100140005A207008D7000F300605F0000319AA28BE
:0A0150009120A3285708F0000800D2
:10015A00BF28803083120313D700D228C030D700BB
:10016A00D2289430D700D228D430D700D228803071
:10017A00D700D228831203135708013A0319AE286D
:10018A005708023A0319B3285708033A0319B6283D
:10019A005708043A0319B928BC285803F00057082D
:1001AA00F0077008D7007008E0001A204B10DA0137
:1001BA005A085907840000080319EB285A085907F6
:1001CA0084000008DB008920DA0ADD284B140800C5
:1001DA00FF28803083120313D7001229C030D700BA
:1001EA0012299430D7001229D430D700122980302E
:1001FA00D7001229831203135708013A0319EE286C
:10020A005708023A0319F3285708033A0319F6283C
:10021A005708043A0319F928FC285803F00057082C
:10022A00F0077008D7004B147008E0001A204B1032
:0A023A005908E0001A204B140800D8
:1002440083120313FB01FA01F9018030F800F10C69
:10025400F00C031C36297408F90775080318750F88
:10026400FA070318FB0A0310F01F3E297408FA0763
:1002740075080318750FFB07FB0CFA0CF90CF80C46
:10028400031C29297B08F3007A08F2007908F1009D
:060294007808F0000800EC
:10029A00013083120313E0001A200130D700013025
:1002AA00D8002030D900AD20D201D30180305306C6
:1002BA00F00080307002031D6429033052020318D3
:1002CA00D92A5208F0005308F100F00DF10D701010
:1002DA0070084C3E84000008F100840A0008F2000D
:1002EA0000307206031D7B2900307106031D8F2919
:1002FA005208F0005308F100F00DF10D701070086B
:10030A004C3ED600A0205608840070088000840A5B
:10031A00800166295208F0005308F100F00DF10D32
:10032A00701070084C3EF300382A5208F000530847
:10033A00F100F00DF10D701070084C3E840007308A
:10034A0080000030840A8000CE2A5208F000530848
:10035A00F100F00DF10D701070084C3E8400083069
:10036A0080000030840A8000CE2A5208F000530828
:10037A00F100F00DF10D701070084C3E8400093048
:10038A0080000030840A8000CE2A5208F000530808
:10039A00F100F00DF10D701070084C3E840004302D
:1003AA0080000030840A8000CE2A5208F0005308E8
:1003BA00F100F00DF10D701070084C3E840005300C
:1003CA0080000030840A8000CE2A5208F0005308C8
:1003DA00F100F00DF10D701070084C3E84000630EB
:1003EA0080000030840A8000CE2A5208F0005308A8
:1003FA00F100F00DF10D701070084C3E84000130D0
:10040A0080000030840A8000CE2A5208F000530887
:10041A00F100F00DF10D701070084C3E84000230AE
:10042A0080000030840A8000CE2A5208F000530867
:10043A00F100F00DF10D701070084C3E840003308D
:10044A0080000030840A8000CE2A5208F000530847
:10045A00F100F00DF10D701070084C3E840080011F
:10046A00840A8001CE2A730884000008F100840AF5
:10047A000008F20000307206031D452A0130710699
:10048A0003199A29730884000008F100840A0008F5
:10049A00F20000307206031D542A02307106031955
:1004AA00AA29730884000008F100840A0008F200EF
:1004BA0000307206031D632A033071060319BA2934
:1004CA00730884000008F100840A0008F200003072
:1004DA007206031D722A053071060319CA297308A8
:1004EA0084000008F100840A0008F2000030720655
:1004FA00031D812A063071060319DA29730884005C
:10050A000008F100840A0008F20000307206031D98
:10051A00902A073071060319EA2973088400000833
:10052A00F100840A0008F20000307206031D9F2AB7
:10053A00093071060319FA29730884000008F100CA
:10054A00840A0008F20000307206031DAE2A0A303F
:10055A00710603190A2A730884000008F100840A44
:10056A000008F20000307206031DBD2A0B30710626
:10057A0003191A2A730884000008F100840A000883
:10058A00F20000307206031DCC2A0E3071060319E0
:10059A002A2A0230D700520AD8002A30D900ED2080
:1005AA00D20A0319D30A5B29D401D5018030550632
:1005BA00F00080307002031DE42A0330540203184D
:1005CA00062B0A30F0000030F1004708F400480812
:1005DA00F50022215408F2005508F300F20DF30D3C
:1005EA00721072084C3E840000087007C700710838
:1005FA000318013E840A0007C800D40A0319D50A61
:10060A00DB2A00304806031D0C2B7B304706031DEE
:10061A00112B0130F000312BCC01CD01CE01CF01DD
:10062A00D001D101C701C8010130E0001A20013010
:10063A00D7000130D8003B30D900AD201530FB007F
:10064A004B30FC00BE30FD00FD0B292BFC0B292B87
:0A065A00FB0B292B00004D290800BE
:0A066400FF30831603138600080020
:10066E0099208A110A128000840AC90A0319CA0A3B
:08067E00F003031D372B0800F7
:100686008316031388110811081288120813881399
:1006960083128811081188130813881208120D2076
:1006A6000D200D20881608168815032088110D20A8
:1006B6008815032088110D208815032088110D2028
:1006C60008128815032088110D208815032088112B
:1006D600881288178815032088110D20881308169C
:1006E60088150320881108128815032088110D200B
:1006F60088150320881108168815032088110D20F7
:1007060008128815032088118817081788160816F6
:0C0716008815032088110D204B140800EA
:10072200E82383160313071083120710432332238F
:100732000C308312E0001A204D210130E0001A2013
:100742000130D7000530D8003030D900AD2001305B
:1007520087060B30FB002630FC005D30FD00FD0BF0
:10076200B02BFC0BB02BFB0BB02B00000000A82B16
:02077200B92BA1
:1007D00020308400293083120313F000BF30C90099
:0807E0000330CA0037230800B2
:10077E0045346E34743465347234203450346134FC
:10078E007334733477346F34723464343A340034DF
:10079E00573465346C3463346F346D3465342034BF
:0607AE003A342934003446
:1007B4004E346F347434203463346F34723472348E
:0807C400653463347434003421
:0407CC0000340034C1
:02400E004A2F37
:00000001FF
